S01000004C43445F44454D4F2E73726563BD
S113000045C0000058C0000056C0000054C00000A5
S113001052C0000050C000004EC000004CC00000A0
S11300204AC0000048C0000046C0000044C00000B0
S113003042C0000040C000003EC000003CC00000C0
S11300403AC0000038C0000036C0000034C00000D0
S113005032C0000030C000002EC000002CC00000E0
S11300602AC0000028C0000026C0000024C00000F0
S113007022C0000020C000001EC000001CC0000000
S11300801AC0000018C0000016C0000011241FBED2
S1130090CFEFD0E1DEBFCDBF11E0A0E0B1E0E0E3FF
S11300A0F2E000E00BBF02C007900D92A631B10749
S11300B0D9F79BD0BBC0A4CFE5E6F0E08081846093
S11300C0808385E08A95F1F780818B7F808385E04A
S11300D08A95F1F708951BBA1ABAE5E6F0E0808133
S11300E08B7F808380818E7F808380818260808308
S11300F0E5E6F0E080818460808385E08A95F1F70D
S113010089B3807890819B7F908395E09A95F1F7ED
S11301108111EECF80818D7F80838FEF8ABB08951C
S1130120CF93C82FD8DFCBBBE5E6F0E080818E7F8C
S1130130808380818D7F8083BFDFCF910895CF93AB
S1130140C82FC9DFCBBBE5E6F0E080818160808306
S113015080818D7F8083B0DFCF9108958FEF8ABB3C
S1130160E4E6F0E0808187608083E5E6F0E080816A
S1130170887F808326E686EE90E021508040904080
S1130180E1F780E38BBB98DF8FEF97E40197F1F7FA
S113019000C0000091DF81EE92E00197F1F70000CA
S11301A08BDF81EE92E00197F1F7000088E3B8DF7E
S11301B088E0B6DF81E0B4DF86E0B2DF8FE0B0CF65
S11301C0089581E0ADCF08956111805C8068A8CF67
S11301D00895CF93DF93EC0102C0B1DF21968881AB
S11301E08111FBCFDF91CF910895B8DF60E080E00B
S11301F0EBDF80E091E0EDDF61E080E0E5DF8AE0C5
S113020091E0E7DF2FEF8FE796E1215080409040A7
S1130210E1F700C00000D5DF2FEF8FE796E1215012
S113022080409040E1F700C00000E0CFF894FFCF99
S113023041546D6567613132380048656C6C6F20DC
S10902404C4344210000C0
S9030000FC
