:1000000045C0000060C000005EC000005CC0000091
:100010005AC0000058C0000056C0000054C0000084
:1000200052C0000050C000004EC000004CC0000094
:100030005FC2000048C0000046C0000044C000008D
:1000400042C0000040C000003EC000003CC00000B4
:100050003AC0000038C0000036C0000034C00000C4
:1000600032C0000030C000002EC000002CC00000D4
:100070002AC0000028C0000026C0000024C00000E4
:1000800022C0000020C000001EC0000011241FBEBE
:10009000CFEFD0E1DEBFCDBF11E0A0E0B1E0E4E101
:1000A000FFE000E00BBF02C007900D92AE30B10739
:1000B000D9F727E0AEE0B1E001C01D92A535B20747
:1000C000E1F7B4D025C79CCF0F931F93CF93DF9355
:1000D000EC01B5D480910E0190910F01892B31F480
:1000E00082E191E090930F0180930E012097D9F067
:1000F00080911001909111019E0120953095281753
:100100003907A0F0C80FD91FCB3D25E0D20788F4EE
:1001100000910E0110910F01080F191FD0931101CA
:10012000C093100108C000E010E005C000E010E03E
:1001300002C000E010E0A2D5C801DF91CF911F916D
:100140000F9108950895FC010396928381832FEF08
:100150003FEF348323839683858390878783108240
:100160000895FC01118610860895CF93DF93EB016B
:10017000488159814F3F2FEF520721F4FC01A7819D
:10018000B0850DC0DC01139601C0DF011296ED9120
:10019000FC9113972081318142175307B0F71296D3
:1001A000ED91FC911397FB83EA83D583C483BD83D0
:1001B000AC831396DC93CE93129799878887FC01C2
:1001C00020812F5F2083DF91CF910895CF93DF931C
:1001D000FC01A085B185C281D381848195819D83F5
:1001E0008C83C481D581828193819B838A8311967C
:1001F0008D919C911297E817F90731F484819581CC
:1002000012969C938E931197118610868C91815033
:100210008C93DF91CF9108958FEF87BB18BA88B385
:10022000809588BB84EF91E0FFD5F9CFE12CF12CCC
:1002300001E020E030E045E561E071E08CE091E034
:1002400085D3E8D3FFCF1BBC85EE8ABD8BE08EBD86
:1002500087B7806187BF089531E1FC013083319712
:1002600022E220833197A3E3A08331976083319703
:10027000708331971082319760E8608331971082E4
:10028000319762E06083319763E06083319764E087
:100290006083319765E06083319766E060833197D2
:1002A00067E06083319768E06083319769E060833D
:1002B000319760E1608331973083319732E1308349
:1002C000319733E13083319734E13083319735E131
:1002D0003083319736E13083319737E1308331977E
:1002E00038E13083319739E13083319730E2308320
:1002F000319731E2308331972083319723E2208395
:100300003197408331975083319726E2208331978C
:1003100027E22083319728E22083319729E2208346
:10032000319720E32083319721E320838697089536
:100330008ADFA0915307B0915407CD91CDBFDD91D5
:10034000DEBFFF91EF91DF91CF91BF91AF919F9170
:100350008F917F916F915F914F913F912F911F915D
:100360000F91FF90EF90DF90CF90BF90AF909F9054
:100370008F907F906F905F904F903F902F901F9045
:100380000F900FBE0F90089581E008950F920FB661
:10039000F8940F921F9211242F923F924F925F92E6
:1003A0006F927F928F929F92AF92BF92CF92DF9285
:1003B000EF92FF920F931F932F933F934F935F936F
:1003C0006F937F938F939F93AF93BF93CF93DF935D
:1003D000EF93FF93A0915307B09154070DB60D9280
:1003E0000EB60D9233D5A0915307B0915407CD911D
:1003F000CDBFDD91DEBFFF91EF91DF91CF91BF9136
:10040000AF919F918F917F916F915F914F913F91AC
:100410002F911F910F91FF90EF90DF90CF90BF90A1
:10042000AF909F908F907F906F905F904F903F9094
:100430002F901F900F900FBE0F9008950F920FB640
:10044000F8940F921F9211242F923F924F925F9235
:100450006F927F928F929F92AF92BF92CF92DF92D4
:10046000EF92FF920F931F932F933F934F935F93BE
:100470006F937F938F939F93AF93BF93CF93DF93AC
:10048000EF93FF93A0915307B09154070DB60D92CF
:100490000EB60D92DAD28111D9D4A0915307B09142
:1004A0005407CD91CDBFDD91DEBFFF91EF91DF917C
:1004B000CF91BF91AF919F918F917F916F915F91FC
:1004C0004F913F912F911F910F91FF90EF90DF90EF
:1004D000CF90BF90AF909F908F907F906F905F90E4
:1004E0004F903F902F901F900F900FBE0F90089548
:1004F000A5DF1895E0911B07F0911C078081811101
:1005000007C08FEF9FEF9093F2068093F106089556
:10051000E0911B07F0911C070580F681E02D80819A
:1005200091819093F2068093F1060895CF93DF9323
:10053000EC018F89988D06DECE0104DEDF91CF912C
:1005400008958F929F92AF92BF92CF92DF92EF92D7
:10055000FF920F93CF93DF935C014901F601C789A6
:10056000D08D50E041505109C40FD51F6115710560
:1005700089F415C0822F90E0FB01E80FF91F30814C
:10058000D601A80FB91F59963C938081882329F082
:100590002F5F01C020E0283068F3F60110A204307C
:1005A00008F003E0F601068BC6010296DADDC6010B
:1005B0000C96D7DDF601D186C08684E090E0801BE2
:1005C000910995878487D38AC28AA401B501CE0197
:1005D00043DEF60191838083E114F10419F0F70101
:1005E000D182C082DF91CF910F91FF90EF90DF9089
:1005F000CF90BF90AF909F908F9008954F925F9251
:100600006F927F928F929F92AF92BF92CF92DF9222
:10061000EF92FF920F931F93CF93DF932C014B0127
:10062000142F3901842F90E04FDD6C01892B89F064
:1006300086E290E049DDEC01892B41F086E2FE0183
:1006400011928A95E9F7D88ECF8A05C0C6017ADD66
:1006500002C0C0E0D0E0209741F0A12CB12C6E0187
:100660009301412FB401C2016CDFCE01DF91CF9124
:100670001F910F91FF90EF90DF90CF90BF90AF90C0
:100680009F908F907F906F905F904F900895CF9341
:10069000C0E00FC08C2F90E09C01220F331F220F6F
:1006A000331F220F331F820F931F815D984F4BDD45
:1006B000CF5FC43078F386E297E045DD8DE197E0C7
:1006C00042DD80E197E03FDD87E097E03CDD8DEFA4
:1006D00096E039DD86E297E090931C0780931B0734
:1006E0008DE197E090931A0780931907CF910895B1
:1006F000CF93DF93EC010FB6F8940F928091FC0634
:100700008F5F8093FC068091530790915407892B4B
:1007100051F4D0935407C09353078091FC06813065
:1007200091F4B5DF10C08091F80681110CC0E09102
:100730005307F091540796898E89891720F0D0933A
:100740005407C09353078091F3068F5F8093F3069D
:100750008E899091F906981710F48093F90690E02D
:10076000FC01EE0FFF1FEE0FFF1FEE0FFF1F8E0F9E
:100770009F1FFC01E15DF84F0180F281E02DFD83B8
:10078000EC83848195819F838E83A481B581CE0182
:10079000029613969C938E93129795838483EE8989
:1007A000F0E0CF01880F991F880F991F880F991FBC
:1007B000E80FF91FE15DF84FFB87EA8780818F5FC3
:1007C00080830F900FBE8091F806882349F0E09156
:1007D0005307F091540796898E89981708F4D6DD4F
:1007E000DF91CF910895CF93DF931AC00FB6F8949D
:1007F0000F92E0910C07F0910D07C681D781CE01D1
:100800000296E4DC8091FC0681508093FC06809186
:1008100006078150809306070F900FBECE0186DE3B
:10082000809106078111E2CFDF91CF910895DBDF40
:1008300080912F078230D8F3A9DDF9CFBF92CF92F4
:10084000DF92EF92FF920F931F93CF93DF93EC0110
:10085000B62E0091FA061091FB06E0901B07F0906F
:100860001C07C0901907D0901A07809153079091E8
:1008700054070296ABDCCF3F8FEFD807B1F5BB2012
:10088000A1F1EDEFF6E0A181B281C0915307D091C3
:100890005407BD83AC83C0915307D091540714967D
:1008A0008D919C9115979F838E831496CD91DC91A9
:1008B0001597809153079091540702969B838A83E2
:1008C0008091530790915407029615969C938E93AE
:1008D0001497A0915307B09154071B96FC93EE9385
:1008E0001A9780818F5F808327C0C00FD11FE0914E
:1008F0005307F0915407D383C283C017D10748F43C
:1009000060915307709154076E5F7F4FC6012DDCD5
:1009100013C060915307709154076E5F7F4FC701FA
:1009200024DC8091F1069091F206C817D90720F4D3
:10093000D093F206C093F106DF91CF911F910F91F2
:10094000FF90EF90DF90CF90BF900895EF92FF92CD
:100950000F9354DE009719F0CBDE81E001C08FEFDA
:100960000F91FF90EF900895EF92FF920F931F93D6
:10097000CF93DF93CDB7DEB728970FB6F894DEBFDD
:100980000FBECDBFFE01319688E0DF011D928A9532
:10099000E9F720E010C0822F90E0FC01E75FFE4FF6
:1009A0003081E1E0F0E0EC0FFD1FE80FF91F30832C
:1009B000332319F02F5F273070F3E1E0F0E0EC0F04
:1009C000FD1FE20FF11D108210E081E014C0812FA5
:1009D000880F990B9C012151394F790100E020E0EB
:1009E00030E045E5BE016F5F7F4F87E194E0AEDF09
:1009F000813019F41F5F111654F728960FB6F8943A
:100A0000DEBF0FBECDBFDF91CF911F910F91FF9041
:100A1000EF900895A9DF813079F4F8948FEF9FEF7C
:100A20009093F2068093F10681E08093F80610928D
:100A3000FB061092FA067CDC8091000108958091FB
:100A4000EE068F5F8093EE0608950F931F93CF936A
:100A5000DF938091EE06811100C1C091FA06D0911A
:100A6000FB068E010F5F1F4F1093FB060093FA06E3
:100A700001151105B1F480911B0790911C0720917D
:100A8000190730911A0730931C0720931B07909386
:100A90001A07809319078091F4068F5F8093F406FC
:100AA00029DD8091F1069091F2060817190720F4CC
:100AB00080E0B8C081E001C080E0E0911B07F091C8
:100AC0001C079081911107C02FEF3FEF3093F20682
:100AD0002093F106A7C0E0911B07F0911C07058049
:100AE000F681E02D0680F781E02D22813381021707
:100AF000130728F43093F2062093F10693C0A285E1
:100B0000B3852481358146815781E9015D834C831A
:100B10002681378144815581E9015B834A8311969F
:100B20002D913C911297AF014E5F5F4F241735070F
:100B300031F42681378112963C932E9311971386B8
:100B400012869C9191509C93A489B589109719F1B4
:100B50002685378560897189E9017D836C832089C9
:100B6000318966857785E9017B836A8311966D916A
:100B70007C9112979F01245F3F4F6217730731F4F6
:100B80002089318912963C932E931197158A148AE5
:100B90009C9191509C9326899091F906921710F49C
:100BA0002093F90630E0D901AA0FBB1FAA0FBB1F83
:100BB000AA0FBB1F2A0F3B1FD901A15DB84F119689
:100BC0000D90BC91A02DB583A48314962D913C91DA
:100BD00015973783268314962D913C911597E9013B
:100BE0005B834A8315965C934E931497A689B0E075
:100BF0009D01220F331F220F331F220F331FA20F1D
:100C0000B31FA15DB84FB387A2879C919F5F9C9350
:100C10002689E0915307F09154079689921708F4BA
:100C200049CF4BCFE0915307F0915407268930E02C
:100C3000F901EE0FFF1FEE0FFF1FEE0FFF1F2E0F2C
:100C40003F1FF901E15DF84F9081923008F081E09B
:100C50009091F50691110CC00CC08091F606909110
:100C6000F70601969093F7068093F60680E001C0A0
:100C700081E0DF91CF911F910F910895CF93DF9382
:100C80000FB6F8940F928091EE0681508093EE0695
:100C90008091EE068111C0C08091FC06811196C042
:100CA000BEC0E0911507F09116070680F781E02D90
:100CB000A489B589C685D785808991899D838C83D0
:100CC000C089D189868597859B838A8311962D91CA
:100CD0003C911297CF010C962817390731F480897F
:100CE000918912969C938E931197158A148A8C91F0
:100CF00081508C93A285B385C481D58186819781EB
:100D00009D838C83C681D781848195819B838A83CF
:100D100011968D919C9112979F012E5F3F4F8217E4
:100D2000930731F48681978112969C938E93119745
:100D3000138612868C9181508C9386899091F90646
:100D4000981710F48093F90690E0DC01AA0FBB1FFE
:100D5000AA0FBB1FAA0FBB1F8A0F9B1FDC01A15D3F
:100D6000B84F11960D90BC91A02DB583A483149615
:100D70008D919C911597978386831496CD91DC91E4
:100D800015973B832A8315963C932E931497A68937
:100D9000B0E0CD01880F991F880F991F880F991F08
:100DA000A80FB91FA15DB84FB387A2878C918F5F41
:100DB0008C939689A0915307B091540756968C91C5
:100DC000891730F481E08093F50602C0E0E0F0E09E
:100DD00080911007811165CFEF2B09F08BDBC0915B
:100DE000F606D091F706209761F02FDE882319F0E0
:100DF00081E08093F5062197C1F71092F7061092D3
:100E0000F6068091F506882349F08091530790916A
:100E10005407BCDA81E003C080E001C080E00F909D
:100E20000FBEDF91CF910895CF93DF93EC01892B13
:100E300031F005DE60E0CE0101DD20DF01C080E0A1
:100E4000811101C0A3DADF91CF9108958091EE0660
:100E5000882321F081E08093F50608951092F5062D
:100E60002091F90601C02150822F90E0FC01EE0F85
:100E7000FF1FEE0FFF1FEE0FFF1FE80FF91FE15DD1
:100E8000F84F3081332379F3AC01440F551F440FE1
:100E9000551F440F551F480F591FFA01E15DF84FC8
:100EA000A181B28112966D917C91139772836183B7
:100EB0004E5C584F6417750779F4FC01EE0FFF1F65
:100EC000EE0FFF1FEE0FFF1FE80FF91FE15DF84F58
:100ED0004581568152834183FC01EE0FFF1FEE0FC7
:100EE000FF1FEE0FFF1F8E0F9F1FFC01E15DF84FEC
:100EF0000180F281E02D8681978190935407809341
:100F000053072093F9068091530790915407089551
:040F1000F894FFCF83
:0E0F1400034C45445F54534B0049444C450088
:00000001FF
